{
  "contractName": "HealthcareDataNFT",
  "abi": [
    {
      "constant": true,
      "inputs": [
        {
          "name": "_interfaceId",
          "type": "bytes4"
        }
      ],
      "name": "supportsInterface",
      "outputs": [
        {
          "name": "",
          "type": "bool"
        }
      ],
      "payable": false,
      "stateMutability": "view",
      "type": "function"
    },
    {
      "constant": true,
      "inputs": [],
      "name": "name",
      "outputs": [
        {
          "name": "",
          "type": "string"
        }
      ],
      "payable": false,
      "stateMutability": "view",
      "type": "function"
    },
    {
      "constant": true,
      "inputs": [
        {
          "name": "_tokenId",
          "type": "uint256"
        }
      ],
      "name": "getApproved",
      "outputs": [
        {
          "name": "",
          "type": "address"
        }
      ],
      "payable": false,
      "stateMutability": "view",
      "type": "function"
    },
    {
      "constant": false,
      "inputs": [
        {
          "name": "_to",
          "type": "address"
        },
        {
          "name": "_tokenId",
          "type": "uint256"
        }
      ],
      "name": "approve",
      "outputs": [],
      "payable": false,
      "stateMutability": "nonpayable",
      "type": "function"
    },
    {
      "constant": true,
      "inputs": [],
      "name": "InterfaceId_ERC165",
      "outputs": [
        {
          "name": "",
          "type": "bytes4"
        }
      ],
      "payable": false,
      "stateMutability": "view",
      "type": "function"
    },
    {
      "constant": true,
      "inputs": [
        {
          "name": "",
          "type": "address"
        },
        {
          "name": "",
          "type": "uint256"
        }
      ],
      "name": "grantedTokens",
      "outputs": [
        {
          "name": "",
          "type": "uint256"
        }
      ],
      "payable": false,
      "stateMutability": "view",
      "type": "function"
    },
    {
      "constant": false,
      "inputs": [
        {
          "name": "_from",
          "type": "address"
        },
        {
          "name": "_to",
          "type": "address"
        },
        {
          "name": "_tokenId",
          "type": "uint256"
        }
      ],
      "name": "transferFrom",
      "outputs": [],
      "payable": false,
      "stateMutability": "nonpayable",
      "type": "function"
    },
    {
      "constant": false,
      "inputs": [
        {
          "name": "_from",
          "type": "address"
        },
        {
          "name": "_to",
          "type": "address"
        },
        {
          "name": "_tokenId",
          "type": "uint256"
        }
      ],
      "name": "safeTransferFrom",
      "outputs": [],
      "payable": false,
      "stateMutability": "nonpayable",
      "type": "function"
    },
    {
      "constant": true,
      "inputs": [
        {
          "name": "_tokenId",
          "type": "uint256"
        }
      ],
      "name": "exists",
      "outputs": [
        {
          "name": "",
          "type": "bool"
        }
      ],
      "payable": false,
      "stateMutability": "view",
      "type": "function"
    },
    {
      "constant": true,
      "inputs": [
        {
          "name": "_tokenId",
          "type": "uint256"
        }
      ],
      "name": "ownerOf",
      "outputs": [
        {
          "name": "",
          "type": "address"
        }
      ],
      "payable": false,
      "stateMutability": "view",
      "type": "function"
    },
    {
      "constant": true,
      "inputs": [
        {
          "name": "_owner",
          "type": "address"
        }
      ],
      "name": "balanceOf",
      "outputs": [
        {
          "name": "",
          "type": "uint256"
        }
      ],
      "payable": false,
      "stateMutability": "view",
      "type": "function"
    },
    {
      "constant": true,
      "inputs": [],
      "name": "symbol",
      "outputs": [
        {
          "name": "",
          "type": "string"
        }
      ],
      "payable": false,
      "stateMutability": "view",
      "type": "function"
    },
    {
      "constant": false,
      "inputs": [
        {
          "name": "_to",
          "type": "address"
        },
        {
          "name": "_approved",
          "type": "bool"
        }
      ],
      "name": "setApprovalForAll",
      "outputs": [],
      "payable": false,
      "stateMutability": "nonpayable",
      "type": "function"
    },
    {
      "constant": true,
      "inputs": [
        {
          "name": "",
          "type": "uint256"
        }
      ],
      "name": "metadataStore",
      "outputs": [
        {
          "name": "dataType",
          "type": "string"
        },
        {
          "name": "date",
          "type": "string"
        },
        {
          "name": "provider",
          "type": "string"
        },
        {
          "name": "ipfsHash",
          "type": "string"
        }
      ],
      "payable": false,
      "stateMutability": "view",
      "type": "function"
    },
    {
      "constant": false,
      "inputs": [
        {
          "name": "_from",
          "type": "address"
        },
        {
          "name": "_to",
          "type": "address"
        },
        {
          "name": "_tokenId",
          "type": "uint256"
        },
        {
          "name": "_data",
          "type": "bytes"
        }
      ],
      "name": "safeTransferFrom",
      "outputs": [],
      "payable": false,
      "stateMutability": "nonpayable",
      "type": "function"
    },
    {
      "constant": true,
      "inputs": [
        {
          "name": "",
          "type": "uint256"
        },
        {
          "name": "",
          "type": "address"
        }
      ],
      "name": "accessKeys",
      "outputs": [
        {
          "name": "",
          "type": "string"
        }
      ],
      "payable": false,
      "stateMutability": "view",
      "type": "function"
    },
    {
      "constant": true,
      "inputs": [
        {
          "name": "_owner",
          "type": "address"
        },
        {
          "name": "_operator",
          "type": "address"
        }
      ],
      "name": "isApprovedForAll",
      "outputs": [
        {
          "name": "",
          "type": "bool"
        }
      ],
      "payable": false,
      "stateMutability": "view",
      "type": "function"
    },
    {
      "inputs": [],
      "payable": false,
      "stateMutability": "nonpayable",
      "type": "constructor"
    },
    {
      "anonymous": false,
      "inputs": [
        {
          "indexed": true,
          "name": "tokenId",
          "type": "uint256"
        },
        {
          "indexed": true,
          "name": "user",
          "type": "address"
        },
        {
          "indexed": false,
          "name": "timestamp",
          "type": "uint256"
        },
        {
          "indexed": false,
          "name": "encryptedKey",
          "type": "string"
        }
      ],
      "name": "AccessGranted",
      "type": "event"
    },
    {
      "anonymous": false,
      "inputs": [
        {
          "indexed": true,
          "name": "tokenId",
          "type": "uint256"
        },
        {
          "indexed": true,
          "name": "user",
          "type": "address"
        },
        {
          "indexed": false,
          "name": "timestamp",
          "type": "uint256"
        }
      ],
      "name": "AccessRevoked",
      "type": "event"
    },
    {
      "anonymous": false,
      "inputs": [
        {
          "indexed": true,
          "name": "_from",
          "type": "address"
        },
        {
          "indexed": true,
          "name": "_to",
          "type": "address"
        },
        {
          "indexed": true,
          "name": "_tokenId",
          "type": "uint256"
        }
      ],
      "name": "Transfer",
      "type": "event"
    },
    {
      "anonymous": false,
      "inputs": [
        {
          "indexed": true,
          "name": "_owner",
          "type": "address"
        },
        {
          "indexed": true,
          "name": "_approved",
          "type": "address"
        },
        {
          "indexed": true,
          "name": "_tokenId",
          "type": "uint256"
        }
      ],
      "name": "Approval",
      "type": "event"
    },
    {
      "anonymous": false,
      "inputs": [
        {
          "indexed": true,
          "name": "_owner",
          "type": "address"
        },
        {
          "indexed": true,
          "name": "_operator",
          "type": "address"
        },
        {
          "indexed": false,
          "name": "_approved",
          "type": "bool"
        }
      ],
      "name": "ApprovalForAll",
      "type": "event"
    },
    {
      "constant": true,
      "inputs": [],
      "name": "totalSupply",
      "outputs": [
        {
          "name": "",
          "type": "uint256"
        }
      ],
      "payable": false,
      "stateMutability": "view",
      "type": "function"
    },
    {
      "constant": false,
      "inputs": [
        {
          "name": "tokenId",
          "type": "uint256"
        },
        {
          "name": "dataType",
          "type": "string"
        },
        {
          "name": "date",
          "type": "string"
        },
        {
          "name": "provider",
          "type": "string"
        },
        {
          "name": "ipfsHash",
          "type": "string"
        }
      ],
      "name": "mintNFT",
      "outputs": [],
      "payable": false,
      "stateMutability": "nonpayable",
      "type": "function"
    },
    {
      "constant": false,
      "inputs": [
        {
          "name": "tokenId",
          "type": "uint256"
        },
        {
          "name": "user",
          "type": "address"
        },
        {
          "name": "encryptedKey",
          "type": "string"
        }
      ],
      "name": "grantAccess",
      "outputs": [],
      "payable": false,
      "stateMutability": "nonpayable",
      "type": "function"
    },
    {
      "constant": false,
      "inputs": [
        {
          "name": "tokenId",
          "type": "uint256"
        },
        {
          "name": "user",
          "type": "address"
        }
      ],
      "name": "revokeAccess",
      "outputs": [],
      "payable": false,
      "stateMutability": "nonpayable",
      "type": "function"
    },
    {
      "constant": true,
      "inputs": [
        {
          "name": "user",
          "type": "address"
        }
      ],
      "name": "getGrantedTokens",
      "outputs": [
        {
          "name": "",
          "type": "uint256[]"
        }
      ],
      "payable": false,
      "stateMutability": "view",
      "type": "function"
    },
    {
      "constant": true,
      "inputs": [
        {
          "name": "tokenId",
          "type": "uint256"
        },
        {
          "name": "user",
          "type": "address"
        }
      ],
      "name": "getEncryptedKey",
      "outputs": [
        {
          "name": "",
          "type": "string"
        }
      ],
      "payable": false,
      "stateMutability": "view",
      "type": "function"
    },
    {
      "constant": true,
      "inputs": [
        {
          "name": "tokenId",
          "type": "uint256"
        }
      ],
      "name": "getMetadata",
      "outputs": [
        {
          "name": "",
          "type": "string"
        },
        {
          "name": "",
          "type": "string"
        },
        {
          "name": "",
          "type": "string"
        },
        {
          "name": "",
          "type": "string"
        }
      ],
      "payable": false,
      "stateMutability": "view",
      "type": "function"
    }
  ],
  "bytecode": "0x60806040523480156200001157600080fd5b506200004f6301ffc9a77c0100000000000000000000000000000000000000000000000000000000026200016b640100000000026401000000009004565b6200008c6380ac58cd7c0100000000000000000000000000000000000000000000000000000000026200016b640100000000026401000000009004565b620000c9634f558e797c0100000000000000000000000000000000000000000000000000000000026200016b640100000000026401000000009004565b6040805190810160405280601181526020017f4865616c746863617265446174614e4654000000000000000000000000000000815250600590805190602001906200011692919062000229565b506040805190810160405280600581526020017f48444e4654000000000000000000000000000000000000000000000000000000815250600690805190602001906200016492919062000229565b50620002d8565b63ffffffff7c010000000000000000000000000000000000000000000000000000000002817bffffffffffffffffffffffffffffffffffffffffffffffffffffffff191614151515620001bd57600080fd5b6001600080837bffffffffffffffffffffffffffffffffffffffffffffffffffffffff19167bffffffffffffffffffffffffffffffffffffffffffffffffffffffff1916815260200190815260200160002060006101000a81548160ff02191690831515021790555050565b828054600181600116156101000203166002900490600052602060002090601f016020900481019282601f106200026c57805160ff19168380011785556200029d565b828001600101855582156200029d579182015b828111156200029c5782518255916020019190600101906200027f565b5b509050620002ac9190620002b0565b5090565b620002d591905b80821115620002d1576000816000905550600101620002b7565b5090565b90565b61319b80620002e86000396000f30060806040526004361061013e576000357c0100000000000000000000000000000000000000000000000000000000900463ffffffff16806301ffc9a71461014357806306fdde03146101a7578063081812fc14610237578063095ea7b3146102a457806318160ddd146102f157806319fa8f501461031c5780631de161091461038557806323b872dd146103e65780632f1d9afe1461045357806342842e0e146105985780634f558e79146106055780636352211e1461064a5780636f053358146106b757806370a082311461077d5780638fe4eb6c146107d457806395d89b411461086c578063a22cb465146108fc578063a574cea41461094b578063a9595ffb14610b35578063ab977c7a14610bc8578063b88d4fde14610db2578063d9a5ec1b14610e65578063e1f8305e14610eb2578063e985e9c514610f78575b600080fd5b34801561014f57600080fd5b5061018d60048036038101908080357bffffffffffffffffffffffffffffffffffffffffffffffffffffffff19169060200190929190505050610ff3565b604051808215151515815260200191505060405180910390f35b3480156101b357600080fd5b506101bc61105a565b6040518080602001828103825283818151815260200191508051906020019080838360005b838110156101fc5780820151818401526020810190506101e1565b50505050905090810190601f1680156102295780820380516001836020036101000a031916815260200191505b509250505060405180910390f35b34801561024357600080fd5b50610262600480360381019080803590602001909291905050506110f8565b604051808273ffffffffffffffffffffffffffffffffffffffff1673ffffffffffffffffffffffffffffffffffffffff16815260200191505060405180910390f35b3480156102b057600080fd5b506102ef600480360381019080803573ffffffffffffffffffffffffffffffffffffffff16906020019092919080359060200190929190505050611135565b005b3480156102fd57600080fd5b5061030661127a565b6040518082815260200191505060405180910390f35b34801561032857600080fd5b50610331611284565b60405180827bffffffffffffffffffffffffffffffffffffffffffffffffffffffff19167bffffffffffffffffffffffffffffffffffffffffffffffffffffffff1916815260200191505060405180910390f35b34801561039157600080fd5b506103d0600480360381019080803573ffffffffffffffffffffffffffffffffffffffff169060200190929190803590602001909291905050506112ab565b6040518082815260200191505060405180910390f35b3480156103f257600080fd5b50610451600480360381019080803573ffffffffffffffffffffffffffffffffffffffff169060200190929190803573ffffffffffffffffffffffffffffffffffffffff169060200190929190803590602001909291905050506112db565b005b34801561045f57600080fd5b5061059660048036038101908080359060200190929190803590602001908201803590602001908080601f0160208091040260200160405190810160405280939291908181526020018383808284378201915050505050509192919290803590602001908201803590602001908080601f0160208091040260200160405190810160405280939291908181526020018383808284378201915050505050509192919290803590602001908201803590602001908080601f0160208091040260200160405190810160405280939291908181526020018383808284378201915050505050509192919290803590602001908201803590602001908080601f01602080910402602001604051908101604052809392919081815260200183838082843782019150505050505091929192905050506113e6565b005b3480156105a457600080fd5b50610603600480360381019080803573ffffffffffffffffffffffffffffffffffffffff169060200190929190803573ffffffffffffffffffffffffffffffffffffffff1690602001909291908035906020019092919050505061152d565b005b34801561061157600080fd5b506106306004803603810190808035906020019092919050505061154e565b604051808215151515815260200191505060405180910390f35b34801561065657600080fd5b50610675600480360381019080803590602001909291905050506115c0565b604051808273ffffffffffffffffffffffffffffffffffffffff1673ffffffffffffffffffffffffffffffffffffffff16815260200191505060405180910390f35b3480156106c357600080fd5b5061070260048036038101908080359060200190929190803573ffffffffffffffffffffffffffffffffffffffff16906020019092919050505061163e565b6040518080602001828103825283818151815260200191508051906020019080838360005b83811015610742578082015181840152602081019050610727565b50505050905090810190601f16801561076f5780820380516001836020036101000a031916815260200191505b509250505060405180910390f35b34801561078957600080fd5b506107be600480360381019080803573ffffffffffffffffffffffffffffffffffffffff16906020019092919050505061188b565b6040518082815260200191505060405180910390f35b3480156107e057600080fd5b50610815600480360381019080803573ffffffffffffffffffffffffffffffffffffffff16906020019092919050505061190f565b6040518080602001828103825283818151815260200191508051906020019060200280838360005b8381101561085857808201518184015260208101905061083d565b505050509050019250505060405180910390f35b34801561087857600080fd5b506108816119a6565b6040518080602001828103825283818151815260200191508051906020019080838360005b838110156108c15780820151818401526020810190506108a6565b50505050905090810190601f1680156108ee5780820380516001836020036101000a031916815260200191505b509250505060405180910390f35b34801561090857600080fd5b50610949600480360381019080803573ffffffffffffffffffffffffffffffffffffffff169060200190929190803515159060200190929190505050611a44565b005b34801561095757600080fd5b5061097660048036038101908080359060200190929190505050611b80565b6040518080602001806020018060200180602001858103855289818151815260200191508051906020019080838360005b838110156109c25780820151818401526020810190506109a7565b50505050905090810190601f1680156109ef5780820380516001836020036101000a031916815260200191505b50858103845288818151815260200191508051906020019080838360005b83811015610a28578082015181840152602081019050610a0d565b50505050905090810190601f168015610a555780820380516001836020036101000a031916815260200191505b50858103835287818151815260200191508051906020019080838360005b83811015610a8e578082015181840152602081019050610a73565b50505050905090810190601f168015610abb5780820380516001836020036101000a031916815260200191505b50858103825286818151815260200191508051906020019080838360005b83811015610af4578082015181840152602081019050610ad9565b50505050905090810190601f168015610b215780820380516001836020036101000a031916815260200191505b509850505050505050505060405180910390f35b348015610b4157600080fd5b50610bc660048036038101908080359060200190929190803573ffffffffffffffffffffffffffffffffffffffff169060200190929190803590602001908201803590602001908080601f0160208091040260200160405190810160405280939291908181526020018383808284378201915050505050509192919290505050611e67565b005b348015610bd457600080fd5b50610bf3600480360381019080803590602001909291905050506121d3565b6040518080602001806020018060200180602001858103855289818151815260200191508051906020019080838360005b83811015610c3f578082015181840152602081019050610c24565b50505050905090810190601f168015610c6c5780820380516001836020036101000a031916815260200191505b50858103845288818151815260200191508051906020019080838360005b83811015610ca5578082015181840152602081019050610c8a565b50505050905090810190601f168015610cd25780820380516001836020036101000a031916815260200191505b50858103835287818151815260200191508051906020019080838360005b83811015610d0b578082015181840152602081019050610cf0565b50505050905090810190601f168015610d385780820380516001836020036101000a031916815260200191505b50858103825286818151815260200191508051906020019080838360005b83811015610d71578082015181840152602081019050610d56565b50505050905090810190601f168015610d9e5780820380516001836020036101000a031916815260200191505b509850505050505050505060405180910390f35b348015610dbe57600080fd5b50610e63600480360381019080803573ffffffffffffffffffffffffffffffffffffffff169060200190929190803573ffffffffffffffffffffffffffffffffffffffff16906020019092919080359060200190929190803590602001908201803590602001908080601f0160208091040260200160405190810160405280939291908181526020018383808284378201915050505050509192919290505050612463565b005b348015610e7157600080fd5b50610eb060048036038101908080359060200190929190803573ffffffffffffffffffffffffffffffffffffffff16906020019092919050505061248b565b005b348015610ebe57600080fd5b50610efd60048036038101908080359060200190929190803573ffffffffffffffffffffffffffffffffffffffff1690602001909291905050506126bf565b6040518080602001828103825283818151815260200191508051906020019080838360005b83811015610f3d578082015181840152602081019050610f22565b50505050905090810190601f168015610f6a5780820380516001836020036101000a031916815260200191505b509250505060405180910390f35b348015610f8457600080fd5b50610fd9600480360381019080803573ffffffffffffffffffffffffffffffffffffffff169060200190929190803573ffffffffffffffffffffffffffffffffffffffff16906020019092919050505061277c565b604051808215151515815260200191505060405180910390f35b6000806000837bffffffffffffffffffffffffffffffffffffffffffffffffffffffff19167bffffffffffffffffffffffffffffffffffffffffffffffffffffffff1916815260200190815260200160002060009054906101000a900460ff169050919050565b60058054600181600116156101000203166002900480601f0160208091040260200160405190810160405280929190818152602001828054600181600116156101000203166002900480156110f05780601f106110c5576101008083540402835291602001916110f0565b820191906000526020600020905b8154815290600101906020018083116110d357829003601f168201915b505050505081565b60006002600083815260200190815260200160002060009054906101000a900473ffffffffffffffffffffffffffffffffffffffff169050919050565b6000611140826115c0565b90508073ffffffffffffffffffffffffffffffffffffffff168373ffffffffffffffffffffffffffffffffffffffff161415151561117d57600080fd5b8073ffffffffffffffffffffffffffffffffffffffff163373ffffffffffffffffffffffffffffffffffffffff1614806111bd57506111bc813361277c565b5b15156111c857600080fd5b826002600084815260200190815260200160002060006101000a81548173ffffffffffffffffffffffffffffffffffffffff021916908373ffffffffffffffffffffffffffffffffffffffff160217905550818373ffffffffffffffffffffffffffffffffffffffff168273ffffffffffffffffffffffffffffffffffffffff167f8c5be1e5ebec7d5bd14f71427d1e84f3dd0314c0f7b2291e5b200ac8c7c3b92560405160405180910390a4505050565b6000600754905090565b6301ffc9a77c01000000000000000000000000000000000000000000000000000000000281565b600a602052816000526040600020818154811015156112c657fe5b90600052602060002001600091509150505481565b6112e53382612810565b15156112f057600080fd5b600073ffffffffffffffffffffffffffffffffffffffff168373ffffffffffffffffffffffffffffffffffffffff161415151561132c57600080fd5b600073ffffffffffffffffffffffffffffffffffffffff168273ffffffffffffffffffffffffffffffffffffffff161415151561136857600080fd5b61137283826128a5565b61137c83826129a8565b6113868282612ad7565b808273ffffffffffffffffffffffffffffffffffffffff168473ffffffffffffffffffffffffffffffffffffffff167fddf252ad1be2c89b69c2b068fc378daa952ba7f163c4a11628f55a4df523b3ef60405160405180910390a4505050565b6113ef85612c31565b151515611464576040517f08c379a00000000000000000000000000000000000000000000000000000000081526004018080602001828103825260178152602001807f546f6b656e20494420616c72656164792065786973747300000000000000000081525060200191505060405180910390fd5b61146e3386612c9d565b608060405190810160405280858152602001848152602001838152602001828152506008600087815260200190815260200160002060008201518160000190805190602001906114bf929190612fad565b5060208201518160010190805190602001906114dc929190612fad565b5060408201518160020190805190602001906114f9929190612fad565b506060820151816003019080519060200190611516929190612fad565b509050506001600754016007819055505050505050565b6115498383836020604051908101604052806000815250612463565b505050565b6000806001600084815260200190815260200160002060009054906101000a900473ffffffffffffffffffffffffffffffffffffffff169050600073ffffffffffffffffffffffffffffffffffffffff168173ffffffffffffffffffffffffffffffffffffffff161415915050919050565b6000806001600084815260200190815260200160002060009054906101000a900473ffffffffffffffffffffffffffffffffffffffff169050600073ffffffffffffffffffffffffffffffffffffffff168173ffffffffffffffffffffffffffffffffffffffff161415151561163557600080fd5b80915050919050565b606061164983612c31565b15156116bd576040517f08c379a00000000000000000000000000000000000000000000000000000000081526004018080602001828103825260178152602001807f546f6b656e20494420646f6573206e6f7420657869737400000000000000000081525060200191505060405180910390fd5b60006009600085815260200190815260200160002060008473ffffffffffffffffffffffffffffffffffffffff1673ffffffffffffffffffffffffffffffffffffffff1681526020019081526020016000208054600181600116156101000203166002900490501415151561179a576040517f08c379a000000000000000000000000000000000000000000000000000000000815260040180806020018281038252601f8152602001807f4e6f20616363657373206772616e74656420666f72207468697320757365720081525060200191505060405180910390fd5b6009600084815260200190815260200160002060008373ffffffffffffffffffffffffffffffffffffffff1673ffffffffffffffffffffffffffffffffffffffff1681526020019081526020016000208054600181600116156101000203166002900480601f01602080910402602001604051908101604052809291908181526020018280546001816001161561010002031660029004801561187e5780601f106118535761010080835404028352916020019161187e565b820191906000526020600020905b81548152906001019060200180831161186157829003601f168201915b5050505050905092915050565b60008073ffffffffffffffffffffffffffffffffffffffff168273ffffffffffffffffffffffffffffffffffffffff16141515156118c857600080fd5b600360008373ffffffffffffffffffffffffffffffffffffffff1673ffffffffffffffffffffffffffffffffffffffff168152602001908152602001600020549050919050565b6060600a60008373ffffffffffffffffffffffffffffffffffffffff1673ffffffffffffffffffffffffffffffffffffffff16815260200190815260200160002080548060200260200160405190810160405280929190818152602001828054801561199a57602002820191906000526020600020905b815481526020019060010190808311611986575b50505050509050919050565b60068054600181600116156101000203166002900480601f016020809104026020016040519081016040528092919081815260200182805460018160011615610100020316600290048015611a3c5780601f10611a1157610100808354040283529160200191611a3c565b820191906000526020600020905b815481529060010190602001808311611a1f57829003601f168201915b505050505081565b3373ffffffffffffffffffffffffffffffffffffffff168273ffffffffffffffffffffffffffffffffffffffff1614151515611a7f57600080fd5b80600460003373ffffffffffffffffffffffffffffffffffffffff1673ffffffffffffffffffffffffffffffffffffffff16815260200190815260200160002060008473ffffffffffffffffffffffffffffffffffffffff1673ffffffffffffffffffffffffffffffffffffffff16815260200190815260200160002060006101000a81548160ff0219169083151502179055508173ffffffffffffffffffffffffffffffffffffffff163373ffffffffffffffffffffffffffffffffffffffff167f17307eab39ab6107e8899845ad3d59bd9653f200f220920489ca2b5937696c3183604051808215151515815260200191505060405180910390a35050565b606080606080611b8e61302d565b6008600087815260200190815260200160002060806040519081016040529081600082018054600181600116156101000203166002900480601f016020809104026020016040519081016040528092919081815260200182805460018160011615610100020316600290048015611c465780601f10611c1b57610100808354040283529160200191611c46565b820191906000526020600020905b815481529060010190602001808311611c2957829003601f168201915b50505050508152602001600182018054600181600116156101000203166002900480601f016020809104026020016040519081016040528092919081815260200182805460018160011615610100020316600290048015611ce85780601f10611cbd57610100808354040283529160200191611ce8565b820191906000526020600020905b815481529060010190602001808311611ccb57829003601f168201915b50505050508152602001600282018054600181600116156101000203166002900480601f016020809104026020016040519081016040528092919081815260200182805460018160011615610100020316600290048015611d8a5780601f10611d5f57610100808354040283529160200191611d8a565b820191906000526020600020905b815481529060010190602001808311611d6d57829003601f168201915b50505050508152602001600382018054600181600116156101000203166002900480601f016020809104026020016040519081016040528092919081815260200182805460018160011615610100020316600290048015611e2c5780601f10611e0157610100808354040283529160200191611e2c565b820191906000526020600020905b815481529060010190602001808311611e0f57829003601f168201915b505050505081525050905080600001518160200151826040015183606001518393508292508191508090509450945094509450509193509193565b611e7083612c31565b1515611ee4576040517f08c379a00000000000000000000000000000000000000000000000000000000081526004018080602001828103825260178152602001807f546f6b656e20494420646f6573206e6f7420657869737400000000000000000081525060200191505060405180910390fd5b3373ffffffffffffffffffffffffffffffffffffffff16611f04846115c0565b73ffffffffffffffffffffffffffffffffffffffff16141515611f8f576040517f08c379a000000000000000000000000000000000000000000000000000000000815260040180806020018281038252601b8152602001807f4f6e6c79206f776e65722063616e206772616e7420616363657373000000000081525060200191505060405180910390fd5b600073ffffffffffffffffffffffffffffffffffffffff168273ffffffffffffffffffffffffffffffffffffffff1614151515612034576040517f08c379a00000000000000000000000000000000000000000000000000000000081526004018080602001828103825260148152602001807f496e76616c69642075736572206164647265737300000000000000000000000081525060200191505060405180910390fd5b600081511115156120ad576040517f08c379a000000000000000000000000000000000000000000000000000000000815260040180806020018281038252601d8152602001807f456e63727970746564206b65792063616e6e6f7420626520656d70747900000081525060200191505060405180910390fd5b806009600085815260200190815260200160002060008473ffffffffffffffffffffffffffffffffffffffff1673ffffffffffffffffffffffffffffffffffffffff1681526020019081526020016000209080519060200190612111929190613056565b508173ffffffffffffffffffffffffffffffffffffffff16837fb788c4937c3b92bf52fd939fb8bf308a3e89a93cb047fafb4bb33ed2f7f56c4c42846040518083815260200180602001828103825283818151815260200191508051906020019080838360005b83811015612193578082015181840152602081019050612178565b50505050905090810190601f1680156121c05780820380516001836020036101000a031916815260200191505b50935050505060405180910390a3505050565b6008602052806000526040600020600091509050806000018054600181600116156101000203166002900480601f01602080910402602001604051908101604052809291908181526020018280546001816001161561010002031660029004801561227f5780601f106122545761010080835404028352916020019161227f565b820191906000526020600020905b81548152906001019060200180831161226257829003601f168201915b505050505090806001018054600181600116156101000203166002900480601f01602080910402602001604051908101604052809291908181526020018280546001816001161561010002031660029004801561231d5780601f106122f25761010080835404028352916020019161231d565b820191906000526020600020905b81548152906001019060200180831161230057829003601f168201915b505050505090806002018054600181600116156101000203166002900480601f0160208091040260200160405190810160405280929190818152602001828054600181600116156101000203166002900480156123bb5780601f10612390576101008083540402835291602001916123bb565b820191906000526020600020905b81548152906001019060200180831161239e57829003601f168201915b505050505090806003018054600181600116156101000203166002900480601f0160208091040260200160405190810160405280929190818152602001828054600181600116156101000203166002900480156124595780601f1061242e57610100808354040283529160200191612459565b820191906000526020600020905b81548152906001019060200180831161243c57829003601f168201915b5050505050905084565b61246e8484846112db565b61247a84848484612d43565b151561248557600080fd5b50505050565b6000803373ffffffffffffffffffffffffffffffffffffffff166124ae856115c0565b73ffffffffffffffffffffffffffffffffffffffff16141515612539576040517f08c379a000000000000000000000000000000000000000000000000000000000815260040180806020018281038252601c8152602001807f4f6e6c79206f776e65722063616e207265766f6b65206163636573730000000081525060200191505060405180910390fd5b6009600085815260200190815260200160002060008473ffffffffffffffffffffffffffffffffffffffff1673ffffffffffffffffffffffffffffffffffffffff168152602001908152602001600020600061259591906130d6565b600a60008473ffffffffffffffffffffffffffffffffffffffff1673ffffffffffffffffffffffffffffffffffffffff1681526020019081526020016000209150600090505b818054905081101561266a578382828154811015156125f657fe5b9060005260206000200154141561265d5781600183805490500381548110151561261c57fe5b9060005260206000200154828281548110151561263557fe5b906000526020600020018190555081805480919060019003612657919061311e565b5061266a565b80806001019150506125db565b8273ffffffffffffffffffffffffffffffffffffffff16847f0de8b5705f103f4c8b38502a68ff29288ee6251cb54c4b316a5d8b472a11764d426040518082815260200191505060405180910390a350505050565b6009602052816000526040600020602052806000526040600020600091509150508054600181600116156101000203166002900480601f0160208091040260200160405190810160405280929190818152602001828054600181600116156101000203166002900480156127745780601f1061274957610100808354040283529160200191612774565b820191906000526020600020905b81548152906001019060200180831161275757829003601f168201915b505050505081565b6000600460008473ffffffffffffffffffffffffffffffffffffffff1673ffffffffffffffffffffffffffffffffffffffff16815260200190815260200160002060008373ffffffffffffffffffffffffffffffffffffffff1673ffffffffffffffffffffffffffffffffffffffff16815260200190815260200160002060009054906101000a900460ff16905092915050565b60008061281c836115c0565b90508073ffffffffffffffffffffffffffffffffffffffff168473ffffffffffffffffffffffffffffffffffffffff16148061288b57508373ffffffffffffffffffffffffffffffffffffffff16612873846110f8565b73ffffffffffffffffffffffffffffffffffffffff16145b8061289c575061289b818561277c565b5b91505092915050565b8173ffffffffffffffffffffffffffffffffffffffff166128c5826115c0565b73ffffffffffffffffffffffffffffffffffffffff161415156128e757600080fd5b600073ffffffffffffffffffffffffffffffffffffffff166002600083815260200190815260200160002060009054906101000a900473ffffffffffffffffffffffffffffffffffffffff1673ffffffffffffffffffffffffffffffffffffffff161415156129a45760006002600083815260200190815260200160002060006101000a81548173ffffffffffffffffffffffffffffffffffffffff021916908373ffffffffffffffffffffffffffffffffffffffff1602179055505b5050565b8173ffffffffffffffffffffffffffffffffffffffff166129c8826115c0565b73ffffffffffffffffffffffffffffffffffffffff161415156129ea57600080fd5b612a3d6001600360008573ffffffffffffffffffffffffffffffffffffffff1673ffffffffffffffffffffffffffffffffffffffff16815260200190815260200160002054612f6590919063ffffffff16565b600360008473ffffffffffffffffffffffffffffffffffffffff1673ffffffffffffffffffffffffffffffffffffffff1681526020019081526020016000208190555060006001600083815260200190815260200160002060006101000a81548173ffffffffffffffffffffffffffffffffffffffff021916908373ffffffffffffffffffffffffffffffffffffffff1602179055505050565b600073ffffffffffffffffffffffffffffffffffffffff166001600083815260200190815260200160002060009054906101000a900473ffffffffffffffffffffffffffffffffffffffff1673ffffffffffffffffffffffffffffffffffffffff16141515612b4557600080fd5b816001600083815260200190815260200160002060006101000a81548173ffffffffffffffffffffffffffffffffffffffff021916908373ffffffffffffffffffffffffffffffffffffffff160217905550612bea6001600360008573ffffffffffffffffffffffffffffffffffffffff1673ffffffffffffffffffffffffffffffffffffffff16815260200190815260200160002054612f7e90919063ffffffff16565b600360008473ffffffffffffffffffffffffffffffffffffffff1673ffffffffffffffffffffffffffffffffffffffff168152602001908152602001600020819055505050565b60008073ffffffffffffffffffffffffffffffffffffffff166001600084815260200190815260200160002060009054906101000a900473ffffffffffffffffffffffffffffffffffffffff1673ffffffffffffffffffffffffffffffffffffffff1614159050919050565b600073ffffffffffffffffffffffffffffffffffffffff168273ffffffffffffffffffffffffffffffffffffffff1614151515612cd957600080fd5b612ce38282612ad7565b808273ffffffffffffffffffffffffffffffffffffffff16600073ffffffffffffffffffffffffffffffffffffffff167fddf252ad1be2c89b69c2b068fc378daa952ba7f163c4a11628f55a4df523b3ef60405160405180910390a45050565b600080612d658573ffffffffffffffffffffffffffffffffffffffff16612f9a565b1515612d745760019150612f5c565b8473ffffffffffffffffffffffffffffffffffffffff1663150b7a02338887876040518563ffffffff167c0100000000000000000000000000000000000000000000000000000000028152600401808573ffffffffffffffffffffffffffffffffffffffff1673ffffffffffffffffffffffffffffffffffffffff1681526020018473ffffffffffffffffffffffffffffffffffffffff1673ffffffffffffffffffffffffffffffffffffffff16815260200183815260200180602001828103825283818151815260200191508051906020019080838360005b83811015612e69578082015181840152602081019050612e4e565b50505050905090810190601f168015612e965780820380516001836020036101000a031916815260200191505b5095505050505050602060405180830381600087803b158015612eb857600080fd5b505af1158015612ecc573d6000803e3d6000fd5b505050506040513d6020811015612ee257600080fd5b8101908080519060200190929190505050905063150b7a027c0100000000000000000000000000000000000000000000000000000000027bffffffffffffffffffffffffffffffffffffffffffffffffffffffff1916817bffffffffffffffffffffffffffffffffffffffffffffffffffffffff19161491505b50949350505050565b6000828211151515612f7357fe5b818303905092915050565b60008183019050828110151515612f9157fe5b80905092915050565b600080823b905060008111915050919050565b828054600181600116156101000203166002900490600052602060002090601f016020900481019282601f10612fee57805160ff191683800117855561301c565b8280016001018555821561301c579182015b8281111561301b578251825591602001919060010190613000565b5b509050613029919061314a565b5090565b608060405190810160405280606081526020016060815260200160608152602001606081525090565b828054600181600116156101000203166002900490600052602060002090601f016020900481019282601f1061309757805160ff19168380011785556130c5565b828001600101855582156130c5579182015b828111156130c45782518255916020019190600101906130a9565b5b5090506130d2919061314a565b5090565b50805460018160011615610100020316600290046000825580601f106130fc575061311b565b601f01602090049060005260206000209081019061311a919061314a565b5b50565b81548183558181111561314557818360005260206000209182019101613144919061314a565b5b505050565b61316c91905b80821115613168576000816000905550600101613150565b5090565b905600a165627a7a7230582045d87d17e59f59e7794d3fc67dd6450e5fc11a3b7c5a958fe1ea13b7137af8790029",
  "source": "pragma solidity ^0.4.25;\r\n\r\nimport \"openzeppelin-solidity/contracts/token/ERC721/ERC721BasicToken.sol\";\r\n\r\ncontract HealthcareDataNFT is ERC721BasicToken {\r\n    struct Metadata {\r\n        string dataType;\r\n        string date;\r\n        string provider;\r\n        string ipfsHash;\r\n    }\r\n\r\n    string public name;\r\n    string public symbol;\r\n\r\n    uint256 private _totalSupply;\r\n\r\n    mapping(uint256 => Metadata) public metadataStore;\r\n    mapping(uint256 => mapping(address => string)) public accessKeys; // Encrypted keys for access control\r\n    mapping(address => uint256[]) public grantedTokens; // Tracks Token IDs a user has access to\r\n\r\n    event AccessGranted(uint256 indexed tokenId, address indexed user, uint256 timestamp, string encryptedKey);\r\n    event AccessRevoked(uint256 indexed tokenId, address indexed user, uint256 timestamp);\r\n\r\n    constructor() public {\r\n        name = \"HealthcareDataNFT\";\r\n        symbol = \"HDNFT\";\r\n    }\r\n\r\n    function _exists(uint256 tokenId) internal view returns (bool) {\r\n        return tokenOwner[tokenId] != address(0); // Check if a token ID has an owner\r\n    }\r\n\r\n    function totalSupply() public view returns (uint256) {\r\n        return _totalSupply;\r\n    }\r\n\r\n    function mintNFT(\r\n        uint256 tokenId,\r\n        string dataType,\r\n        string date,\r\n        string provider,\r\n        string ipfsHash\r\n    ) public {\r\n        require(!_exists(tokenId), \"Token ID already exists\");\r\n        _mint(msg.sender, tokenId);\r\n\r\n        metadataStore[tokenId] = Metadata({\r\n            dataType: dataType,\r\n            date: date,\r\n            provider: provider,\r\n            ipfsHash: ipfsHash\r\n        });\r\n\r\n        _totalSupply = _totalSupply + 1;\r\n    }\r\n\r\n    function grantAccess(uint256 tokenId, address user, string encryptedKey) public {\r\n    require(_exists(tokenId), \"Token ID does not exist\");\r\n    require(ownerOf(tokenId) == msg.sender, \"Only owner can grant access\");\r\n    require(user != address(0), \"Invalid user address\");\r\n    require(bytes(encryptedKey).length > 0, \"Encrypted key cannot be empty\");\r\n\r\n    accessKeys[tokenId][user] = encryptedKey; // Store encrypted key specific to the user\r\n    emit AccessGranted(tokenId, user, now, encryptedKey);\r\n}\r\n\r\n\r\n    function revokeAccess(uint256 tokenId, address user) public {\r\n        require(ownerOf(tokenId) == msg.sender, \"Only owner can revoke access\");\r\n\r\n        delete accessKeys[tokenId][user]; // Remove encrypted key\r\n\r\n        // Remove tokenId from user's granted tokens\r\n        uint256[] storage tokens = grantedTokens[user];\r\n        for (uint256 i = 0; i < tokens.length; i++) {\r\n            if (tokens[i] == tokenId) {\r\n                tokens[i] = tokens[tokens.length - 1];\r\n                tokens.length--;\r\n                break;\r\n            }\r\n        }\r\n\r\n        emit AccessRevoked(tokenId, user, now);\r\n    }\r\n\r\n    function getGrantedTokens(address user) public view returns (uint256[]) {\r\n        return grantedTokens[user];\r\n    }\r\n\r\n    function getEncryptedKey(uint256 tokenId, address user) public view returns (string) {\r\n    require(_exists(tokenId), \"Token ID does not exist\");\r\n    require(bytes(accessKeys[tokenId][user]).length != 0, \"No access granted for this user\");\r\n    return accessKeys[tokenId][user];\r\n}\r\n\r\n\r\n    function getMetadata(uint256 tokenId) public view returns (string, string, string, string) {\r\n        Metadata memory data = metadataStore[tokenId];\r\n        return (data.dataType, data.date, data.provider, data.ipfsHash);\r\n    }\r\n}\r\n",
  "sourcePath": "C:\\Users\\Manoj\\OneDrive\\Desktop\\Adv_Blockchain\\HealthcareDataNFTVault\\contracts\\HealthcareDataNFT.sol",
  "compiler": {
    "name": "solc",
    "version": "0.4.25+commit.59dbf8f1.Emscripten.clang"
  },
  "schemaVersion": "3.4.16",
  "updatedAt": "2024-11-23T20:43:05.685Z",
  "networkType": "ethereum",
  "devdoc": {
    "methods": {
      "approve(address,uint256)": {
        "details": "Approves another address to transfer the given token ID The zero address indicates there is no approved address. There can only be one approved address per token at a given time. Can only be called by the token owner or an approved operator.",
        "params": {
          "_to": "address to be approved for the given token ID",
          "_tokenId": "uint256 ID of the token to be approved"
        }
      },
      "balanceOf(address)": {
        "details": "Gets the balance of the specified address",
        "params": {
          "_owner": "address to query the balance of"
        },
        "return": "uint256 representing the amount owned by the passed address"
      },
      "exists(uint256)": {
        "details": "Returns whether the specified token exists",
        "params": {
          "_tokenId": "uint256 ID of the token to query the existence of"
        },
        "return": "whether the token exists"
      },
      "getApproved(uint256)": {
        "details": "Gets the approved address for a token ID, or zero if no address set",
        "params": {
          "_tokenId": "uint256 ID of the token to query the approval of"
        },
        "return": "address currently approved for the given token ID"
      },
      "isApprovedForAll(address,address)": {
        "details": "Tells whether an operator is approved by a given owner",
        "params": {
          "_operator": "operator address which you want to query the approval of",
          "_owner": "owner address which you want to query the approval of"
        },
        "return": "bool whether the given operator is approved by the given owner"
      },
      "ownerOf(uint256)": {
        "details": "Gets the owner of the specified token ID",
        "params": {
          "_tokenId": "uint256 ID of the token to query the owner of"
        },
        "return": "owner address currently marked as the owner of the given token ID"
      },
      "safeTransferFrom(address,address,uint256)": {
        "details": "Safely transfers the ownership of a given token ID to another address If the target address is a contract, it must implement `onERC721Received`, which is called upon a safe transfer, and return the magic value `bytes4(keccak256(\"onERC721Received(address,address,uint256,bytes)\"))`; otherwise, the transfer is reverted.   * Requires the msg sender to be the owner, approved, or operator",
        "params": {
          "_from": "current owner of the token",
          "_to": "address to receive the ownership of the given token ID",
          "_tokenId": "uint256 ID of the token to be transferred"
        }
      },
      "safeTransferFrom(address,address,uint256,bytes)": {
        "details": "Safely transfers the ownership of a given token ID to another address If the target address is a contract, it must implement `onERC721Received`, which is called upon a safe transfer, and return the magic value `bytes4(keccak256(\"onERC721Received(address,address,uint256,bytes)\"))`; otherwise, the transfer is reverted. Requires the msg sender to be the owner, approved, or operator",
        "params": {
          "_data": "bytes data to send along with a safe transfer check",
          "_from": "current owner of the token",
          "_to": "address to receive the ownership of the given token ID",
          "_tokenId": "uint256 ID of the token to be transferred"
        }
      },
      "setApprovalForAll(address,bool)": {
        "details": "Sets or unsets the approval of a given operator An operator is allowed to transfer all tokens of the sender on their behalf",
        "params": {
          "_approved": "representing the status of the approval to be set",
          "_to": "operator address to set the approval"
        }
      },
      "supportsInterface(bytes4)": {
        "details": "implement supportsInterface(bytes4) using a lookup table"
      },
      "transferFrom(address,address,uint256)": {
        "details": "Transfers the ownership of a given token ID to another address Usage of this method is discouraged, use `safeTransferFrom` whenever possible Requires the msg sender to be the owner, approved, or operator",
        "params": {
          "_from": "current owner of the token",
          "_to": "address to receive the ownership of the given token ID",
          "_tokenId": "uint256 ID of the token to be transferred"
        }
      }
    }
  },
  "userdoc": {
    "methods": {}
  }
}